{
    "contractName": "Calend3",
    "abi": [
        {
            "inputs": [],
            "stateMutability": "nonpayable",
            "type": "constructor"
        },
        {
            "inputs": [
                {
                    "internalType": "string",
                    "name": "title",
                    "type": "string"
                },
                {
                    "internalType": "uint256",
                    "name": "startTime",
                    "type": "uint256"
                },
                {
                    "internalType": "uint256",
                    "name": "endTime",
                    "type": "uint256"
                }
            ],
            "name": "createAppointment",
            "outputs": [],
            "stateMutability": "nonpayable",
            "type": "function"
        },
        {
            "inputs": [],
            "name": "getAppointments",
            "outputs": [
                {
                    "components": [
                        {
                            "internalType": "string",
                            "name": "title",
                            "type": "string"
                        },
                        {
                            "internalType": "address",
                            "name": "attendee",
                            "type": "address"
                        },
                        {
                            "internalType": "uint256",
                            "name": "startTime",
                            "type": "uint256"
                        },
                        {
                            "internalType": "uint256",
                            "name": "endTime",
                            "type": "uint256"
                        },
                        {
                            "internalType": "uint256",
                            "name": "amountPaid",
                            "type": "uint256"
                        }
                    ],
                    "internalType": "struct Calend3.Appointment[]",
                    "name": "",
                    "type": "tuple[]"
                }
            ],
            "stateMutability": "view",
            "type": "function"
        },
        {
            "inputs": [],
            "name": "getRate",
            "outputs": [
                {
                    "internalType": "uint256",
                    "name": "",
                    "type": "uint256"
                }
            ],
            "stateMutability": "view",
            "type": "function"
        },
        {
            "inputs": [
                {
                    "internalType": "uint256",
                    "name": "_rate",
                    "type": "uint256"
                }
            ],
            "name": "setRate",
            "outputs": [],
            "stateMutability": "nonpayable",
            "type": "function"
        }
    ],
    "bytecode": "608060405234801561001057600080fd5b50600180546001600160a01b031916331790556106fa806100326000396000f3fe608060405234801561001057600080fd5b506004361061004c5760003560e01c806334fcf4371461005157806359c35bdf14610066578063679aefce1461007957806396b80d081461008f575b600080fd5b61006461005f36600461033c565b6100a4565b005b61006461007436600461036b565b610107565b6000546040519081526020015b60405180910390f35b610097610214565b604051610086919061042f565b6001546001600160a01b031633146101025760405162461bcd60e51b815260206004820152601f60248201527f4f6e6c7920746865206f776e65722063616e2073657420746865207261746500604482015260640160405180910390fd5b600055565b6101426040518060a001604052806060815260200160006001600160a01b031681526020016000815260200160008152602001600081525090565b8381526040810183905260608101829052600054603c6101628585610523565b61016c919061053a565b610176919061055c565b608082015233602082015260028054600181018255600091909152815182916005027f405787fa12a823e0f2b7631cc41b3ba8828b3321ca811111fa75cd3aa3bb5ace019081906101c79082610604565b5060208201516001820180546001600160a01b0319166001600160a01b03909216919091179055604082015160028201556060820151600382015560809091015160049091015550505050565b60606002805480602002602001604051908101604052809291908181526020016000905b8282101561033357838290600052602060002090600502016040518060a001604052908160008201805461026b9061057b565b80601f01602080910402602001604051908101604052809291908181526020018280546102979061057b565b80156102e45780601f106102b9576101008083540402835291602001916102e4565b820191906000526020600020905b8154815290600101906020018083116102c757829003601f168201915b50505091835250506001828101546001600160a01b0316602080840191909152600284015460408401526003840154606084015260049093015460809092019190915291835292019101610238565b50505050905090565b60006020828403121561034e57600080fd5b5035919050565b634e487b7160e01b600052604160045260246000fd5b60008060006060848603121561038057600080fd5b833567ffffffffffffffff8082111561039857600080fd5b818601915086601f8301126103ac57600080fd5b8135818111156103be576103be610355565b604051601f8201601f19908116603f011681019083821181831017156103e6576103e6610355565b816040528281528960208487010111156103ff57600080fd5b82602086016020830137600060208483010152809750505050505060208401359150604084013590509250925092565b60006020808301818452808551808352604092508286019150828160051b8701018488016000805b848110156104fe57603f198a8503018652825160a08151818752805180838901528592505b8083101561049a578183018c015188840160c00152918b019161047c565b808311156104ab578560c0828a0101525b838c01516001600160a01b038116898e01529250838b0151888c01526060808501519089015260809384015193880193909352505095880195601f01601f191690930160c0019291870191600101610457565b50919998505050505050505050565b634e487b7160e01b600052601160045260246000fd5b6000828210156105355761053561050d565b500390565b60008261055757634e487b7160e01b600052601260045260246000fd5b500490565b60008160001904831182151516156105765761057661050d565b500290565b600181811c9082168061058f57607f821691505b6020821081036105af57634e487b7160e01b600052602260045260246000fd5b50919050565b601f8211156105ff57600081815260208120601f850160051c810160208610156105dc5750805b601f850160051c820191505b818110156105fb578281556001016105e8565b5050505b505050565b815167ffffffffffffffff81111561061e5761061e610355565b6106328161062c845461057b565b846105b5565b602080601f831160018114610667576000841561064f5750858301515b600019600386901b1c1916600185901b1785556105fb565b600085815260208120601f198616915b8281101561069657888601518255948401946001909101908401610677565b50858210156106b45787850151600019600388901b60f8161c191681555b5050505050600190811b0190555056fea26469706673582212204165d42bce5808374fbbe2b4b88c6931cd185a3a73f7fc3d694c0028cd2866f464736f6c634300080f0033",
    "sourcePath": "e:/MustafaStaj/web3/calend3-tutorial/contracts/Calend3.sol",
    "compiler": {
        "name": "solc",
        "version": "0.8.15+commit.e14f2714"
    },
    "functionHashes": {
        "createAppointment(string,uint256,uint256)": "59c35bdf",
        "getAppointments()": "96b80d08",
        "getRate()": "679aefce",
        "setRate(uint256)": "34fcf437"
    },
    "gasEstimates": {
        "creation": {
            "codeDepositCost": "357200",
            "executionCost": "24628",
            "totalCost": "381828"
        },
        "external": {
            "createAppointment(string,uint256,uint256)": "infinite",
            "getAppointments()": "infinite",
            "getRate()": "2291",
            "setRate(uint256)": "24442"
        }
    }
}